:100000000C942A000C9447000C9447000C94470071
:100010000C94B6120C94E9120C941C130C944F130C
:100020000C9482130C94B5130C94E8130C941B14C9
:100030000C9447000C94F3070C9420080C944D0882
:100040000C9447000C9447000C9447000C94470014
:100050000C94470011241FBECFE5D8E0DEBFCDBF12
:1000600012E0A0E6B0E0E8E9FBE402C005900D92E2
:10007000AC30B107D9F712E0ACE0B2E001C01D929C
:10008000A534B107E1F70E94511E0C94CA250C94C7
:100090000000EF92FF920F931F937B018C0120E0F1
:1000A00030E040E05FE40E94F50388238CF0C80153
:1000B000B70120E030E040E05FE40E94C1010E940F
:1000C000B3049B01AC01205030404040504806C072
:1000D000C801B7010E94B3049B01AC01B901CA0178
:1000E0001F910F91FF90EF900895A0E0B0E0EBE733
:1000F000F0E00C949325DC012B01FA019C919230E5
:1001000008F439C1EB018881823008F433C194309E
:1001100069F4843009F02FC111969C91119789815F
:10012000981709F428C1AAEEB0E025C1843009F47B
:1001300021C18230A9F4923009F01DC19A01AD01AC
:1001400088E0EA010990AE01E90109929E0181501F
:10015000C1F7E201898111969C918923818308C1AD
:10016000923009F407C112962D903C901397EB0141
:100170008A819B811496AD90BD90CD90DC901797AD
:10018000EC80FD800E811F819101281B390BB90184
:1001900037FF04C066277727621B730B6032710537
:1001A0000CF061C0121613066CF537014801062EDB
:1001B00004C096948794779467940A94D2F721E0C8
:1001C00030E040E050E004C0220F331F441F551FB1
:1001D0006A95D2F721503040404050402E213F21B7
:1001E00040235123211531054105510521F021E01E
:1001F00030E040E050E079018A01E628F72808293C
:1002000019293CC0232BD1F1260E371E350146019A
:10021000062E04C096948794779467940A94D2F734
:1002200021E030E040E050E004C0220F331F441FC3
:10023000551F6A95D2F721503040404050402A2146
:100240003B214C215D21211531054105510521F04E
:1002500021E030E040E050E059016A01A628B728CB
:10026000C828D9280BC0821593052CF01C01AA249C
:10027000BB24650103C0EE24FF24870111969C91E5
:10028000D20111968C91981709F445C0992339F041
:10029000A80197012A193B094C095D0906C0A6016E
:1002A00095012E193F09400B510B57FD08C01182D3
:1002B0003382228224833583468357831DC081E0A5
:1002C00081833382228288279927DC01821B930B4A
:1002D000A40BB50B84839583A683B7830DC0220F2F
:1002E000331F441F551F24833583468357838281E0
:1002F000938101979383828324813581468157813D
:10030000DA01C9010197A109B1098F5F9F4FAF4F72
:10031000BF4328F30BC0918333822282EA0CFB1C7B
:100320000C1D1D1DE482F5820683178383E0808304
:10033000248135814681578157FF1AC0C901AA27F8
:1003400097FDA095BA2F81709070A070B0705695EF
:10035000479537952795822B932BA42BB52B848318
:100360009583A683B7838281938101969383828349
:10037000DF0101C0D201CD01CDB7DEB7E2E10C94BF
:10038000AF25A0E2B0E0E7ECF1E00C949F25698393
:100390007A838B839C832D833E834F835887E9E048
:1003A000EE2EF12CEC0EFD1ECE010196B7010E943F
:1003B000A4068E010F5E1F4FCE010596B8010E9464
:1003C000A4068A8991E089278A8BC701B801AE010A
:1003D000475E5F4F0E9475000E94CF05A096E6E041
:1003E0000C94BB25A0E2B0E0E8EFF1E00C949F256F
:1003F00069837A838B839C832D833E834F835887C5
:10040000F9E0EF2EF12CEC0EFD1ECE010196B701A6
:100410000E94A4068E010F5E1F4FCE010596B80103
:100420000E94A406C701B801AE01475E5F4F0E945B
:1004300075000E94CF05A096E6E00C94BB25A0E2D3
:10044000B0E0E5E2F2E00C94932569837A838B8334
:100450009C832D833E834F835887CE010196BE0136
:10046000675F7F4F0E94A406CE010596BE016F5EB6
:100470007F4F0E94A4069985923088F08989823046
:10048000C8F0943019F4823051F404C0843029F457
:10049000923081F48AEE90E0C6C0923049F420E0B8
:1004A0009A858A89981321E02A87CE010996BBC0D4
:1004B000823049F420E09A858A89981321E02A8BBA
:1004C000CE014196B0C02D843E844F8458886D88FB
:1004D0007E888F88988CEE24FF248701AA24BB2471
:1004E000650140E050E060E070E0E0E0F0E0C10174
:1004F00081709070892BE9F0E60CF71C081D191D1E
:100500009A01AB012A0D3B1D4C1D5D1D80E090E062
:10051000A0E0B0E0E614F7040805190520F481E036
:1005200090E0A0E0B0E0BA01A901480F591F6A1F8E
:100530007B1FAA0CBB1CCC1CDD1C97FE08C081E0F5
:1005400090E0A0E0B0E0A82AB92ACA2ADB2A3196B6
:10055000E032F10549F0660C771C881C991C569412
:10056000479437942794C3CFFA85EA892B893C892D
:100570008B859C85280F391F2E5F3F4F17C0CA01FE
:1005800081709070892B61F016950795F794E79428
:1005900080E090E0A0E0B0E8E82AF92A0A2B1B2BC3
:1005A00076956795579547952F5F3F4F77FDE7CF36
:1005B0000CC0440F551F661F771F17FD4160EE0CDE
:1005C000FF1C001F111F21503040403090E05907A0
:1005D00090E0690790E4790760F32B8F3C8FDB0193
:1005E000CA018F779070A070B07080349105A1051A
:1005F000B10561F447FD0AC0E114F10401051105DC
:1006000029F0405C5F4F6F4F7F4F40781A8EFE1786
:1006100011F081E08A8F4D8F5E8F6F8F78A383E01A
:10062000898FCE0149960E94CF05A096E2E10C94F5
:10063000AF25A8E1B0E0EFE1F3E00C949B256983DE
:100640007A838B839C832D833E834F835887B9E0C5
:10065000EB2EF12CEC0EFD1ECE010196B7010E948F
:10066000A4068E010F5E1F4FCE010596B8010E94B1
:10067000A4062985223008F47EC03989323010F46E
:10068000B8017CC08A859A8989278A87243011F02D
:10069000223031F4231709F06EC06AEE70E06EC0AC
:1006A000343039F41D861E861F86188A1C861B86E8
:1006B00004C0323021F484E08987B7015FC02B8504
:1006C0003C858B899C89281B390B3C872B87ED84C3
:1006D000FE840F851889AD88BE88CF88D88CEA142F
:1006E000FB040C051D0540F4EE0CFF1C001F111F40
:1006F000215030403C872B8720E030E040E050E044
:1007000080E090E0A0E0B0E460E070E0EA14FB0478
:100710000C051D0540F0282B392B4A2B5B2BEA18C2
:10072000FB080C091D09B695A79597958795EE0CC2
:10073000FF1C001F111F6F5F7F4F6F31710531F775
:10074000DA01C9018F779070A070B0708034910584
:10075000A105B10561F427FD0AC0E114F10401050A
:10076000110529F0205C3F4F4F4F5F4F20782D87B8
:100770003E874F87588BBE01675F7F4FCB010E943A
:10078000CF056896EAE00C94B725A8E1B0E0EBEC61
:10079000F3E00C949F2569837A838B839C832D835C
:1007A0003E834F83588789E0E82EF12CEC0EFD1E26
:1007B000CE010196B7010E94A4068E010F5E1F4F65
:1007C000CE010596B8010E94A4068985823040F0CA
:1007D0008989823028F0C701B8010E941C0701C036
:1007E0008FEF6896E6E00C94BB25A8E1B0E0EBEF54
:1007F000F3E00C949F2569837A838B839C832D83FC
:100800003E834F83588789E0E82EF12CEC0EFD1EC5
:10081000CE010196B7010E94A4068E010F5E1F4F04
:10082000CE010596B8010E94A4068985823040F069
:100830008989823028F0C701B8010E941C0701C0D5
:100840008FEF6896E6E00C94BB25A8E1B0E0EBE200
:10085000F4E00C949F2569837A838B839C832D839A
:100860003E834F83588789E0E82EF12CEC0EFD1E65
:10087000CE010196B7010E94A4068E010F5E1F4FA4
:10088000CE010596B8010E94A4068985823040F009
:100890008989823028F0C701B8010E941C0701C075
:1008A00081E06896E6E00C94BB25A8E0B0E0EBE5BB
:1008B000F4E00C949C259B01AC0183E08983DA0170
:1008C000C9018827B7FD83959927AA27BB27B82E8A
:1008D000211531054105510519F482E089833AC09B
:1008E0008823A9F0203080E0380780E0480780E8BE
:1008F000580729F460E070E080E09FEC30C0EE24FF
:10090000FF248701E21AF30A040B150B02C07901D8
:100910008A018EE1C82ED12CDC82CB82ED82FE8250
:100920000F831887C801B7010E9480050197181628
:10093000190684F4082E04C0EE0CFF1C001F111FC2
:100940000A94D2F7ED82FE820F831887C81AD90A5B
:10095000DC82CB82BA82CE0101960E94CF05289616
:10096000E9E00C94B825ACE0B0E0E9EBF4E00C94DD
:10097000A32569837A838B839C83CE010196BE0174
:100980006B5F7F4F0E94A4068D81823061F18230BF
:1009900050F1843021F48E81882351F12EC02F81B3
:1009A000388537FD20C06E812F3131051CF066235C
:1009B000F9F023C08EE190E0821B930B29853A85E4
:1009C0004B855C8504C056954795379527958A9544
:1009D000D2F76623B1F050954095309521953F4F61
:1009E0004F4F5F4F0EC020E030E040E050E009C0C4
:1009F0002FEF3FEF4FEF5FE704C020E030E040E033
:100A000050E8B901CA012C96E2E00C94BF25A8E099
:100A1000B0E0EDE0F5E00C949B257B018C016115C5
:100A200071058105910519F482E0898360C083E036
:100A300089838EE1C82ED12CDC82CB82ED82FE82AE
:100A40000F831887C801B7010E948005FC01319708
:100A5000F7FF3BC0222733272E1B3F0B57016801AE
:100A6000022E04C0D694C794B794A7940A94D2F7E0
:100A700040E050E060E070E081E090E0A0E0B0E0B5
:100A800004C0880F991FAA1FBB1F2A95D2F7019790
:100A9000A109B1098E219F21A023B1230097A105AF
:100AA000B10521F041E050E060E070E04A295B29A7
:100AB0006C297D294D835E836F8378878EE190E07A
:100AC0008E1B9F0B9C838B8312C0309781F00E2E60
:100AD00004C0EE0CFF1C001F111F0A94D2F7ED8218
:100AE000FE820F831887CE1ADF0ADC82CB821A823D
:100AF000CE0101960E94CF052896EAE00C94B72516
:100B0000EF92FF920F931F937B018C0180E0E81618
:100B100080E0F80681E0080780E0180788F48FEF8E
:100B2000E816F1040105110531F028F088E090E0A5
:100B3000A0E0B0E017C080E090E0A0E0B0E012C01C
:100B400080E0E81680E0F80680E0080781E01807FA
:100B500028F088E190E0A0E0B0E004C080E190E0FF
:100B6000A0E0B0E020E230E040E050E0281B390B8C
:100B70004A0B5B0B04C016950795F794E7948A958A
:100B8000D2F7F701EE50FF4F8081281B3109410950
:100B90005109C9011F910F91FF90EF900895DF92C5
:100BA000EF92FF920F931F93FC01E480F580068182
:100BB0001781D1808081823048F480E090E0A0E10C
:100BC000B0E0E82AF92A0A2B1B2BA5C0843009F4CF
:100BD0009FC0823021F4EE24FF24870105C0E11478
:100BE000F1040105110519F4E0E0F0E096C062811E
:100BF00073819FEF623879070CF05BC022E83FEF0A
:100C0000261B370B2A3131052CF020E030E040E084
:100C100050E02AC0B801A701022E04C0769567955E
:100C2000579547950A94D2F781E090E0A0E0B0E0B4
:100C300004C0880F991FAA1FBB1F2A95D2F70197DE
:100C4000A109B1098E219F21A023B1230097A105FD
:100C5000B10521F081E090E0A0E0B0E09A01AB01A5
:100C6000282B392B4A2B5B2BDA01C9018F77907027
:100C7000A070B07080349105A105B10539F427FF4B
:100C800009C0205C3F4F4F4F5F4F04C0215C3F4F76
:100C90004F4F5F4FE0E0F0E02030A0E03A07A0E0E7
:100CA0004A07A0E45A0710F0E1E0F0E079018A0178
:100CB00027C06038710564F5FB01E158FF4FD8018A
:100CC000C7018F779070A070B07080349105A10536
:100CD000B10539F4E7FE0DC080E490E0A0E0B0E09B
:100CE00004C08FE390E0A0E0B0E0E80EF91E0A1F18
:100CF0001B1F17FF05C016950795F794E7943196CB
:100D000087E016950795F794E7948A95D1F705C083
:100D1000EE24FF248701EFEFF0E06E2F6795662742
:100D20006795902F9F77D794DD24D7948E2F869543
:100D3000492F462B582F5D29B701CA011F910F91EA
:100D4000FF90EF90DF900895FC01DB01408151811D
:100D50002281622F6F7770E0221F2227221F93814A
:100D6000892F880F822B282F30E0991F9927991FF0
:100D700011969C93119721153105A9F5411551053F
:100D80006105710511F482E037C082E89FEF139688
:100D90009C938E9312979A01AB0167E0220F331F49
:100DA000441F551F6A95D1F783E08C930DC0220F25
:100DB000331F441F551F12968D919C9113970197D5
:100DC00013969C938E931297203080E0380780E032
:100DD000480780E4580758F314962D933D934D939C
:100DE0005C93179708952F3F310579F4411551050C
:100DF0006105710519F484E08C93089564FF03C0C4
:100E000081E08C9312C01C9210C02F573040139673
:100E10003C932E93129783E08C9387E0440F551FE9
:100E2000661F771F8A95D1F7706414964D935D9372
:100E30006D937C93179708951F93DC01FB019C91A0
:100E4000923008F447C08081823008F443C0943067
:100E500051F411961C91843099F58181682F70E0CE
:100E6000611B71093FC0843021F0923031F482302F
:100E7000B9F18181882389F12DC011961C911197B8
:100E80008230F1F081811817D9F412962D913C919E
:100E90001397828193818217930794F0281739075B
:100EA000BCF014968D919D910D90BC91A02D248144
:100EB000358146815781281739074A075B0718F49F
:100EC000112341F00AC082179307A407B50740F425
:100ED000112319F061E070E005C06FEF7FEF02C0F1
:100EE00060E070E0CB011F910895DF93CF93CDB701
:100EF000DEB7AFE5B0E0EFE5F0E0808180688C938D
:100F0000CF91DF910895DF93CF93CDB7DEB7AFE5F3
:100F1000B0E0EFE5F0E080818F778C93CF91DF91A7
:100F20000895DF93CF930F92CDB7DEB71982AAE26F
:100F3000B0E0EAE2F0E0808180688C93AAE2B0E061
:100F4000EAE2F0E0808180628C93AAE2B0E0EAE21B
:100F5000F0E080818B7F8C9389818068898389818F
:100F60008260898389818460898389818F7B898379
:100F700089818F7E898389818F7D89838981877F1C
:100F80008983E0E4F0E089818083E9E2F0E083E3B3
:100F90008083AAE2B0E0EAE2F0E0808180618C9395
:100FA000AAE2B0E0EAE2F0E0808188608C930F90E2
:100FB000CF91DF910895DF93CF930F92CDB7DEB736
:100FC0008983ECE2F0E0898180830F90CF91DF91FB
:100FD0000895DF93CF93CDB7DEB7ECE2F0E08081E8
:100FE000CF91DF9108951F920F920FB60F921124A7
:100FF0002F933F934F935F936F937F938F939F9321
:10100000AF93BF93EF93FF93DF93CF93CDB7DEB74B
:10101000E0910F02F09110020995CF91DF91FF91BD
:10102000EF91BF91AF919F918F917F916F915F9160
:101030004F913F912F910F900FBE0F901F901895D9
:101040001F920F920FB60F9211242F933F934F933D
:101050005F936F937F938F939F93AF93BF93EF9320
:10106000FF93DF93CF93CDB7DEB7E0910D02F09100
:101070000E020995CF91DF91FF91EF91BF91AF9152
:101080009F918F917F916F915F914F913F912F91A0
:101090000F900FBE0F901F9018951F920F920FB6D2
:1010A0000F921124DF93CF93CDB7DEB7CF91DF91AD
:1010B0000F900FBE0F901F901895DF93CF9300D025
:1010C000CDB7DEB79A83898389819A8190930E0286
:1010D00080930D020F900F90CF91DF910895DF93D1
:1010E000CF9300D0CDB7DEB79A83898389819A8167
:1010F0009093100280930F020F900F90CF91DF9189
:101100000895DF93CF93CDB7DEB7AAE2B0E0EAE26D
:10111000F0E080818F7D8C93CF91DF910895DF93F4
:10112000CF93CDB7DEB7AAE2B0E0EAE2F0E080818B
:1011300080628C93CF91DF910895DF93CF9300D09D
:101140000F92CDB7DEB789838981282F30E03B83AA
:101150002A838A819B818130910569F12A813B81B3
:101160002230310509F469C08A819B81009709F01A
:1011700085C0A3E4B0E0E3E4F0E0808980645096A9
:101180008C93A3E4B0E0E3E4F0E0808988605096BB
:101190008C93A3E4B0E0E3E4F0E080898F7E509686
:1011A0008C93A3E4B0E0E3E4F0E0808980625096A1
:1011B0008C93509763C0A3E4B0E0E3E4F0E084854F
:1011C0008E7F1C968C93A3E4B0E0E3E4F0E084858A
:1011D00082601C968C93A3E4B0E0E3E4F0E08385A6
:1011E00088601B968C93A3E4B0E0E3E4F0E0838591
:1011F00080611B968C93A3E4B0E0E3E4F0E0848587
:101200008F7B1C968C93A3E4B0E0E3E4F0E084854C
:1012100080681C968C93A3E4B0E0E3E4F0E084855E
:101220008F7E1C968C93A3E4B0E0E3E4F0E0848529
:101230008F7D1C968C931C9721C0A3E4B0E0E3E45F
:10124000F0E08281806412968C93A3E4B0E0E3E442
:10125000F0E08281877F12968C93A3E4B0E0E3E410
:10126000F0E082818F7E12968C93A3E4B0E0E3E4F9
:10127000F0E08281806212968C9312970F900F900B
:101280000F90CF91DF910895DF93CF93CDB7DEB765
:101290002A970FB6F894DEBF0FBECDBF89836A834D
:1012A0008981282F30E03A87298789859A8581307E
:1012B000910509F41BC129853A852230310509F4CD
:1012C00025C289859A85009709F029C38A81282F2C
:1012D00030E038872F838F8198858430910509F419
:1012E00083C02F813885253031058CF48F81988516
:1012F0008130910509F444C02F81388522303105B1
:1013000009F458C08F819885009701F108C32F8197
:1013100038852730310509F49BC08F819885883046
:1013200091053CF42F8138852630310509F476C0CB
:10133000F6C28F8198858830910509F4A3C02F816A
:1013400038852930310509F4B7C0E9C2A3E4B0E01B
:10135000E3E4F0E080898E7F50968C93A3E4B0E0C4
:10136000E3E4F0E080898D7F50968C93A3E4B0E0B5
:10137000E3E4F0E080898B7F50968C935097CFC246
:10138000A3E4B0E0E3E4F0E08089816050968C93C0
:10139000A3E4B0E0E3E4F0E080898D7F50968C9385
:1013A000A3E4B0E0E3E4F0E080898B7F50968C9377
:1013B0005097B5C2A3E4B0E0E3E4F0E080898E7F0B
:1013C00050968C93A3E4B0E0E3E4F0E0808982607F
:1013D00050968C93A3E4B0E0E3E4F0E080898B7F47
:1013E00050968C9350979BC2A3E4B0E0E3E4F0E006
:1013F0008089816050968C93A3E4B0E0E3E4F0E050
:101400008089826050968C93A3E4B0E0E3E4F0E03E
:1014100080898B7F50968C93509781C2A3E4B0E073
:10142000E3E4F0E080898E7F50968C93A3E4B0E0F3
:10143000E3E4F0E080898D7F50968C93A3E4B0E0E4
:10144000E3E4F0E08089846050968C93509767C203
:10145000A3E4B0E0E3E4F0E08089816050968C93EF
:10146000A3E4B0E0E3E4F0E080898D7F50968C93B4
:10147000A3E4B0E0E3E4F0E08089846050968C93CC
:1014800050974DC2A3E4B0E0E3E4F0E080898E7FA2
:1014900050968C93A3E4B0E0E3E4F0E080898260AE
:1014A00050968C93A3E4B0E0E3E4F0E0808984609C
:1014B00050968C93509733C2A3E4B0E0E3E4F0E09D
:1014C0008089816050968C93A3E4B0E0E3E4F0E07F
:1014D0008089826050968C93A3E4B0E0E3E4F0E06E
:1014E0008089846050968C93509719C28A81282FE6
:1014F00030E03E832D838D819E818430910509F4F7
:1015000083C02D813E81253031058CF48D819E81F3
:101510008130910509F444C02D813E81223031058E
:1015200009F458C08D819E81009701F1F8C12D8189
:101530003E812730310509F49BC08D819E81883022
:1015400091053CF42D813E812630310509F476C0A9
:10155000E6C18D819E818830910509F4A3C02D815B
:101560003E812930310509F4B7C0D9C1A3E4B0E008
:10157000E3E4F0E083858E7F1B968C93A3E4B0E0D8
:10158000E3E4F0E083858D7F1B968C93A3E4B0E0C9
:10159000E3E4F0E083858B7F1B968C931B97BFC1A0
:1015A000A3E4B0E0E3E4F0E0838581601B968C93D4
:1015B000A3E4B0E0E3E4F0E083858D7F1B968C9399
:1015C000A3E4B0E0E3E4F0E083858B7F1B968C938B
:1015D0001B97A5C1A3E4B0E0E3E4F0E083858E7F30
:1015E0001B968C93A3E4B0E0E3E4F0E08385826093
:1015F0001B968C93A3E4B0E0E3E4F0E083858B7F5B
:101600001B968C931B978BC1A3E4B0E0E3E4F0E05E
:10161000838581601B968C93A3E4B0E0E3E4F0E063
:10162000838582601B968C93A3E4B0E0E3E4F0E052
:1016300083858B7F1B968C931B9771C1A3E4B0E0CD
:10164000E3E4F0E083858E7F1B968C93A3E4B0E007
:10165000E3E4F0E083858D7F1B968C93A3E4B0E0F8
:10166000E3E4F0E0838584601B968C931B9757C15D
:10167000A3E4B0E0E3E4F0E0838581601B968C9303
:10168000A3E4B0E0E3E4F0E083858D7F1B968C93C8
:10169000A3E4B0E0E3E4F0E0838584601B968C93E0
:1016A0001B973DC1A3E4B0E0E3E4F0E083858E7FC7
:1016B0001B968C93A3E4B0E0E3E4F0E083858260C2
:1016C0001B968C93A3E4B0E0E3E4F0E083858460B0
:1016D0001B968C931B9723C1A3E4B0E0E3E4F0E0F6
:1016E000838581601B968C93A3E4B0E0E3E4F0E093
:1016F000838582601B968C93A3E4B0E0E3E4F0E082
:10170000838584601B968C931B9709C18A81282F3F
:1017100030E03C832B838B819C818330910509F4DD
:101720007DC02B813C81243031058CF48B819C81E0
:101730008130910509F43EC02B813C812230310576
:101740000CF052C08B819C810097D1F0E8C02B81B6
:101750003C812530310509F495C08B819C81853011
:1017600091050CF475C02B813C812630310509F4BC
:10177000A3C08B819C818730910509F4B7C0CFC08D
:10178000A3E4B0E0E3E4F0E082818E7F12968C93D4
:10179000A3E4B0E0E3E4F0E082818D7F12968C93C5
:1017A000A3E4B0E0E3E4F0E082818B7F12968C93B7
:1017B0001297B5C0A3E4B0E0E3E4F0E08281816079
:1017C00012968C93A3E4B0E0E3E4F0E082818D7F95
:1017D00012968C93A3E4B0E0E3E4F0E082818B7F87
:1017E00012968C9312979BC0A3E4B0E0E3E4F0E080
:1017F00082818E7F12968C93A3E4B0E0E3E4F0E064
:101800008281826012968C93A3E4B0E0E3E4F0E07E
:1018100082818B7F12968C93129781C0A3E4B0E0F3
:10182000E3E4F0E08281816012968C93A3E4B0E05F
:10183000E3E4F0E08281826012968C93A3E4B0E04E
:10184000E3E4F0E082818B7F12968C93129767C05D
:10185000A3E4B0E0E3E4F0E082818E7F12968C9303
:10186000A3E4B0E0E3E4F0E082818D7F12968C93F4
:10187000A3E4B0E0E3E4F0E08281846012968C930C
:1018800012974DC0A3E4B0E0E3E4F0E08281816010
:1018900012968C93A3E4B0E0E3E4F0E082818D7FC4
:1018A00012968C93A3E4B0E0E3E4F0E082818460DC
:1018B00012968C93129733C0A3E4B0E0E3E4F0E017
:1018C00082818E7F12968C93A3E4B0E0E3E4F0E093
:1018D0008281826012968C93A3E4B0E0E3E4F0E0AE
:1018E0008281846012968C93129719C0A3E4B0E0B1
:1018F000E3E4F0E08281816012968C93A3E4B0E08F
:10190000E3E4F0E08281826012968C93A3E4B0E07D
:10191000E3E4F0E08281846012968C9312972A9619
:101920000FB6F894DEBF0FBECDBFCF91DF91089503
:10193000DF93CF9300D00F92CDB7DEB78983898133
:10194000282F30E03B832A838A819B818130910557
:1019500021F12A813B8122303105C9F18A819B81A5
:10196000009709F04DC0A3E4B0E0E3E4F0E0808923
:101970008E7F50968C93A3E4B0E0E3E4F0E080899E
:101980008D7F50968C93A3E4B0E0E3E4F0E080898F
:101990008B7F50968C93509733C0A3E4B0E0E3E480
:1019A000F0E083858E7F1B968C93A3E4B0E0E3E4A4
:1019B000F0E083858D7F1B968C93A3E4B0E0E3E495
:1019C000F0E083858B7F1B968C931B9719C0A3E453
:1019D000B0E0E3E4F0E082818E7F12968C93A3E482
:1019E000B0E0E3E4F0E082818D7F12968C93A3E473
:1019F000B0E0E3E4F0E082818B7F12968C93129743
:101A00000F900F900F90CF91DF910895DF93CF93B8
:101A100000D00F92CDB7DEB789838981282F30E0BF
:101A20003B832A838A819B818330910509F44AC0D4
:101A30002A813B81243031057CF48A819B8181306D
:101A4000910561F12A813B81223031058CF58A8133
:101A50009B810097C9F066C02A813B812530310502
:101A600009F444C08A819B8185309105ACF12A81BB
:101A70003B812630310509F443C08A819B81873040
:101A8000910509F447C04EC0A3E4B0E0E3E4F0E000
:101A90008689816056968C93569744C0A3E4B0E043
:101AA000E3E4F0E08689826056968C9356973AC0BC
:101AB000A3E4B0E0E3E4F0E08689846056968C937A
:101AC000569730C0A3E4B0E0E3E4F0E08689886094
:101AD00056968C93569726C0A3E4B0E0E3E4F0E07A
:101AE0008689806156968C9356971CC0A3E4B0E01B
:101AF000E3E4F0E08689806256968C93569712C094
:101B0000A3E4B0E0E3E4F0E08689806456968C9329
:101B1000569708C0A3E4B0E0E3E4F0E0868980686B
:101B200056968C93A3E4B0E0E3E4F0E0848D806803
:101B30005C968C935C970F900F900F90CF91DF91F4
:101B40000895DF93CF9300D00F92CDB7DEB789838E
:101B50008981282F30E03B832A838A819B818330CF
:101B6000910509F44AC02A813B81243031057CF477
:101B70008A819B818130910561F12A813B812230EC
:101B800031058CF58A819B810097C9F067C02A8155
:101B90003B812530310509F444C08A819B81853021
:101BA0009105ACF12A813B812630310509F443C00F
:101BB0008A819B818730910509F447C04FC0A3E417
:101BC000B0E0E3E4F0E086898E7F56968C935697DA
:101BD00045C0A3E4B0E0E3E4F0E086898D7F56964B
:101BE0008C9356973BC0A3E4B0E0E3E4F0E0868931
:101BF0008B7F56968C93569731C0A3E4B0E0E3E414
:101C0000F0E08689877F56968C93569727C0A3E489
:101C1000B0E0E3E4F0E086898F7E56968C93569789
:101C20001DC0A3E4B0E0E3E4F0E086898F7D569622
:101C30008C93569713C0A3E4B0E0E3E4F0E0868908
:101C40008F7B56968C93569709C0A3E4B0E0E3E4EB
:101C5000F0E086898F7756968C9356970F900F9069
:101C60000F90CF91DF910895DF93CF9300D000D0F4
:101C70000F92CDB7DEB789837B836A838981282F52
:101C800030E03D832C838C819D818330910509F464
:101C90003EC02C813D81243031057CF48C819D81B6
:101CA0008130910531F12C813D812230310544F59F
:101CB0008C819D810097B1F04CC02C813D812530F5
:101CC000310599F18C819D81853091053CF12C8104
:101CD0003D812630310581F18C819D8187309105D0
:101CE00091F137C08A819B819093210280932002D9
:101CF00030C08A819B8190931F0280931E0229C06D
:101D00008A819B8190931D0280931C0222C08A814C
:101D10009B8190931B0280931A021BC08A819B8136
:101D2000909319028093180214C08A819B8190932A
:101D30001702809316020DC08A819B819093150231
:101D40008093140206C08A819B8190931302809332
:101D500012020F900F900F900F900F90CF91DF9184
:101D60000895DF93CF9300D000D00F92CDB7DEB7A8
:101D700089838981282F30E03D832C838C819D814C
:101D80008130910589F02C813D812230310599F017
:101D90008C819D810097B9F4E3E4F0E08785282FDA
:101DA00030E03B832A8311C0E3E4F0E08185928533
:101DB0009B838A830AC0E3E4F0E08181282F30E02E
:101DC0003B832A8302C01B821A828A819B810F90E7
:101DD0000F900F900F900F90CF91DF910895DF93A8
:101DE000CF9300D000D00F92CDB7DEB789837B832D
:101DF0006A838981282F30E03D832C838C819D81EB
:101E00008230910531F12C813D812330310554F42C
:101E10008C819D81009789F02C813D812130310595
:101E200089F029C08C819D818330910501F12C813D
:101E30003D8124303105A1F01EC0E3E4F0E08A8149
:101E4000818F19C0E3E4F0E08A819B8196838583CA
:101E500012C0E3E4F0E08A819B81908787830BC006
:101E6000E3E4F0E08A819B819483838304C0E3E40C
:101E7000F0E08A8180830F900F900F900F900F9069
:101E8000CF91DF910895DF93CF9300D000D00F92D0
:101E9000CDB7DEB789837B836A838981282F30E0C1
:101EA0003D832C838C819D818130910571F02C8143
:101EB0003D812230310581F08C819D81009781F434
:101EC000E3E4F0E08A8187870BC0E3E4F0E08A81F5
:101ED0009B819287818704C0E3E4F0E08A8181835B
:101EE0000F900F900F900F900F90CF91DF9108956A
:101EF000DF93CF93CDB7DEB763970FB6F894DEBF0D
:101F00000FBECDBF8B874C875D876E877F87398BF0
:101F1000288B80E890E0A0E0B0E08F839887A987C5
:101F2000BA871E821D8219821A821B821C828B85AF
:101F3000282F30E03B8B2A8B8A899B898130910541
:101F400009F482C02A893B892230310509F4FEC098
:101F50008A899B89009709F06FC18F819885A9852F
:101F6000BA85BA2FA92F982F882789839A83AB83A4
:101F7000BC838C859D85AE85BF8528EE33E040E02F
:101F800050E0BC01CD010E945225DC01CB0129812A
:101F90003A814B815C81BC01CD010E947125DA013F
:101FA000C90180932C0290932D02A0932E02B0932E
:101FB0002F028C859D85AE85BF8528EE33E040E0FD
:101FC00050E0BC01CD010E945225DC01CB012981EA
:101FD0003A814B815C81BC01CD010E947125DC01FD
:101FE000CB019E838D838D819E81CC01A0E0B0E0EA
:101FF0002F81388549855A85BC01CD010E94712504
:10200000DA01C90181958093280280E00E949D0831
:1020100080912802282F30E080E0B9010E94430F10
:1020200080E00E94060D888999899093230280930D
:10203000220223EC31E180E0B9010E94340E80E0FD
:1020400067E00E944409F8C081E090E0A0E0B0E0C1
:102050008F839887A987BA878F819885A985BA8544
:10206000DC019927882789839A83AB83BC838C857D
:102070009D85AE85BF8528EE33E040E050E0BC0191
:10208000CD010E945225DC01CB0129813A814B818F
:102090005C81BC01CD010E947125DA01C9018093E8
:1020A000300290933102A0933202B09333028C85B8
:1020B0009D85AE85BF8528EE33E040E050E0BC0151
:1020C000CD010E945225DC01CB0129813A814B814F
:1020D0005C81BC01CD010E947125DC01CB019E8396
:1020E0008D838D819E81CC01A0E0B0E02F81388569
:1020F00049855A85BC01CD010E947125DA01C901CB
:10210000909581959F4F90932A028093290281E0B8
:102110000E949D082091290230912A0281E0B90194
:102120000E94430F82E00E94060D8889998990934E
:1021300025028093240224E132E182E0B9010E9469
:10214000340E81E062E00E94440976C08F81988558
:10215000A985BA85BA2FA92F982F882789839A83B2
:10216000AB83BC838C859D85AE85BF8528EE33E02F
:1021700040E050E0BC01CD010E945225DC01CB01C2
:1021800029813A814B815C81BC01CD010E9471257E
:10219000DA01C9018093340290933502A09336028C
:1021A000B09337028C859D85AE85BF8528EE33E0E0
:1021B00040E050E0BC01CD010E945225DC01CB0182
:1021C00029813A814B815C81BC01CD010E9471253E
:1021D000DC01CB019E838D838D819E81CC01A0E0AB
:1021E000B0E02F81388549855A85BC01CD010E9418
:1021F0007125DA01C901819580932B0282E00E944A
:102200009D0880912B02282F30E082E0B9010E94C6
:10221000430F86E00E94060D8889998990932702D2
:102220008093260225E632E186E0B9010E94340E51
:1022300082E067E00E94440963960FB6F894DEBF1F
:102240000FBECDBFCF91DF910895DF93CF93CDB770
:10225000DEB727970FB6F894DEBF0FBECDBF8983D8
:102260004A835B836C837D838981282F30E03F83A1
:102270002E838E819F818130910509F47BC02E8150
:102280003F81223031052CF48E819F81009769F0C7
:1022900071C02E813F812230310549F18E819F81AD
:1022A0008330910509F445C065C06A817B818C81CA
:1022B0009D8120E030E040E853E40E941F02DC01F1
:1022C000CB01BC01CD0120E030E048EC52E40E949B
:1022D0001903DC01CB01BC01CD010E944900DC01E6
:1022E000CB019C0180E0B9010E94EF0E43C06A81DE
:1022F0007B818C819D8120E030E44CE956E40E9492
:102300001F02DC01CB01BC01CD0120E030E048EC34
:1023100052E40E941903DC01CB01BC01CD010E94F3
:102320004900DC01CB019C0182E0B9010E94EF0E63
:1023300021C06A817B818C819D8120E030E040E872
:1023400053E40E941F02DC01CB01BC01CD0120E05F
:1023500030E048EC52E40E941903DC01CB01BC01DF
:10236000CD010E944900DC01CB019C0183E0B90151
:102370000E94EF0E27960FB6F894DEBF0FBECDBFBA
:10238000CF91DF910895DF93CF93CDB7DEB78091E2
:102390002C0290912D02A0912E02B0912F029C014F
:1023A000AD012F5F3F4F4F4F5F4F809138029091AB
:1023B0003902A0913A02B0913B02281739074A0727
:1023C0005B07E1F48091220290912302009769F06B
:1023D00080912802282F30E080E0B9010E94430F4D
:1023E000E0912202F0912302099510923802109296
:1023F000390210923A0210923B0213C080913802C7
:1024000090913902A0913A02B0913B020196A11D30
:10241000B11D8093380290933902A0933A02B09391
:102420003B02CF91DF910895DF93CF93CDB7DEB715
:102430008091300290913102A0913202B09133022A
:102440009C01AD012F5F3F4F4F4F5F4F80913C028A
:1024500090913D02A0913E02B0913F0228173907AA
:102460004A075B07E1F480912402909125020097CE
:1024700069F02091290230912A0281E0B9010E947D
:10248000430FE0912402F0912502099510923C023D
:1024900010923D0210923E0210923F0213C08091B2
:1024A0003C0290913D02A0913E02B0913F02019604
:1024B000A11DB11D80933C0290933D02A0933E026A
:1024C000B0933F02CF91DF910895DF93CF93CDB7C3
:1024D000DEB78091340290913502A0913602B0911E
:1024E00037029C01AD012F5F3F4F4F4F5F4F8091EF
:1024F000400290914102A0914202B09143022817FC
:1025000039074A075B07E1F4809126029091270280
:10251000009769F080912B02282F30E082E0B9010A
:102520000E94430FE0912602F09127020995109234
:10253000400210924102109242021092430213C0D4
:102540008091400290914102A0914202B0914302D9
:102550000196A11DB11D8093400290934102A0936A
:102560004202B0934302CF91DF9108951F920F92E0
:102570000FB60F9211242F933F934F935F936F9356
:102580007F938F939F93AF93BF93EF93FF93DF93CB
:10259000CF93CDB7DEB780911202909113020097CE
:1025A00029F0E0911202F09113020995CF91DF9189
:1025B000FF91EF91BF91AF919F918F917F916F911B
:1025C0005F914F913F912F910F900FBE0F901F90F1
:1025D00018951F920F920FB60F9211242F933F93CD
:1025E0004F935F936F937F938F939F93AF93BF931B
:1025F000EF93FF93DF93CF93CDB7DEB780911402B3
:1026000090911502009729F0E0911402F0911502C3
:102610000995CF91DF91FF91EF91BF91AF919F917C
:102620008F917F916F915F914F913F912F910F907B
:102630000FBE0F901F9018951F920F920FB60F921A
:1026400011242F933F934F935F936F937F938F93B7
:102650009F93AF93BF93EF93FF93DF93CF93CDB748
:10266000DEB78091160290911702009729F0E09151
:102670001602F09117020995CF91DF91FF91EF912A
:10268000BF91AF919F918F917F916F915F914F918A
:102690003F912F910F900FBE0F901F9018951F9292
:1026A0000F920FB60F9211242F933F934F935F9386
:1026B0006F937F938F939F93AF93BF93EF93FF930A
:1026C000DF93CF93CDB7DEB78091180290911902B6
:1026D000009729F0E0911802F09119020995CF9125
:1026E000DF91FF91EF91BF91AF919F918F917F917A
:1026F0006F915F914F913F912F910F900FBE0F906F
:102700001F9018951F920F920FB60F9211242F93BE
:102710003F934F935F936F937F938F939F93AF9369
:10272000BF93EF93FF93DF93CF93CDB7DEB7809145
:102730001A0290911B02009729F0E0911A02F09181
:102740001B020995CF91DF91FF91EF91BF91AF915E
:102750009F918F917F916F915F914F913F912F91B9
:102760000F900FBE0F901F9018951F920F920FB6EB
:102770000F9211242F933F934F935F936F937F9307
:102780008F939F93AF93BF93EF93FF93DF93CF9379
:10279000CDB7DEB780911C0290911D02009729F001
:1027A000E0911C02F0911D020995CF91DF91FF91FC
:1027B000EF91BF91AF919F918F917F916F915F91B9
:1027C0004F913F912F910F900FBE0F901F90189532
:1027D0001F920F920FB60F9211242F933F934F9396
:1027E0005F936F937F938F939F93AF93BF93EF9379
:1027F000FF93DF93CF93CDB7DEB780911E02909108
:102800001F02009729F0E0911E02F0911F02099526
:10281000CF91DF91FF91EF91BF91AF919F918F91F8
:102820007F916F915F914F913F912F910F900FBECC
:102830000F901F9018951F920F920FB60F921124B0
:102840002F933F934F935F936F937F938F939F93B8
:10285000AF93BF93EF93FF93DF93CF93CDB7DEB7E3
:102860008091200290912102009729F0E0912002AE
:10287000F09121020995CF91DF91FF91EF91BF91E6
:10288000AF919F918F917F916F915F914F913F9108
:102890002F910F900FBE0F901F901895DF93CF933D
:1028A00000D000D0CDB7DEB79A8389836B834C8389
:1028B000E981FA818181982F8B8180958923E98133
:1028C000FA818183E981FA8121819B818C8189232D
:1028D000822BE981FA8181830F900F900F900F90E6
:1028E000CF91DF910895DF93CF9300D000D0CDB783
:1028F000DEB79A8389836B834C83E981FA81828175
:10290000982F8B8180958923E981FA818283E981DF
:10291000FA8122819B818C818923822BE981FA8132
:1029200082830F900F900F900F90CF91DF910895B9
:10293000DF93CF9300D00F92CDB7DEB79A83898310
:102940006B83E981FA8190818B8189230F900F90AD
:102950000F90CF91DF910895DF93CF9300D00F9226
:10296000CDB7DEB79A8389836B83E981FA8192813F
:102970008B818927E981FA8182830F900F900F90D4
:10298000CF91DF910895DF93CF9300D00F92CDB711
:10299000DEB79A8389836B83E981FA818B81828395
:1029A0000F900F900F90CF91DF910895DF93CF9309
:1029B000CDB7DEB781E00E949D0884E060E27EE44E
:1029C0000E94EF0E81E062E00E944409A1E3B0E0C2
:1029D000E1E3F0E0808180628C93CF91DF910895F4
:1029E000DF93CF9300D000D00F92CDB7DEB78D83A9
:1029F0008D81882F90E0A0E0B0E0BC01CD010E9465
:102A00000705DC01CB01BC01CD0120E030E044E34F
:102A100053E40E941903DC01CB01BC01CD0120E08D
:102A200030E040EF50E40E941F02DC01CB01BC010A
:102A3000CD0120E030E040EA50E40E94F201DC01E8
:102A4000CB0189839A83AB83BC838D81853B48F41A
:102A500029813A814B815C8182E0BA01A9010E94FF
:102A600025110F900F900F900F900F90CF91DF9145
:102A70000895DF93CF93CDB7DEB76D970FB6F89477
:102A8000DEBF0FBECDBF8D8FA8E3B0E0E8E3F0E07E
:102A9000808180628C93A8E3B0E0E8E3F0E080817D
:102AA0008F7B8C93A8E3B0E0E8E3F0E0808180685E
:102AB0008C93EBE3F0E08D8D808380E090E0A0E8E4
:102AC000BFE3898F9A8FAB8FBC8F698D7A8D8B8D89
:102AD0009C8D20E030E04AEF54E40E941F02DC01AC
:102AE000CB018D8B9E8BAF8BB88F6D897E898F8943
:102AF000988D20E030E040E85FE30E9425048823C1
:102B00002CF481E090E09C8B8B8B3FC06D897E899B
:102B10008F89988D20E03FEF4FE757E40E94C5036F
:102B200018164CF5698D7A8D8B8D9C8D20E030E0E8
:102B300040E251E40E941F02DC01CB01BC01CD0147
:102B40000E944900DC01CB019C8B8B8B0FC088EC71
:102B500090E09A8B898B89899A890197F1F79A8BF2
:102B6000898B8B899C8901979C8B8B8B8B899C890A
:102B7000009769F714C06D897E898F89988D0E94AE
:102B80004900DC01CB019C8B8B8B8B899C89988BBA
:102B90008F878F8598890197F1F7988B8F87A8E3A6
:102BA000B0E0E8E3F0E080818F778C9380E090E004
:102BB000A0E8BFE38B879C87AD87BE876B857C854C
:102BC0008D859E8520E030E04AEF54E40E941F028C
:102BD000DC01CB018F839887A987BA876F817885BD
:102BE00089859A8520E030E040E85FE30E94250473
:102BF00088232CF481E090E09E838D833FC06F8119
:102C0000788589859A8520E03FEF4FE757E40E9459
:102C1000C50318164CF56B857C858D859E8520E057
:102C200030E040E251E40E941F02DC01CB01BC0114
:102C3000CD010E944900DC01CB019E838D830FC032
:102C400088EC90E09C838B838B819C810197F1F7CA
:102C50009C838B838D819E8101979E838D838D8143
:102C60009E81009769F714C06F81788589859A8560
:102C70000E944900DC01CB019E838D838D819E8162
:102C80009A83898389819A810197F1F79A8389834D
:102C90006D960FB6F894DEBF0FBECDBFCF91DF911A
:102CA0000895DF93CF93CDB7DEB76D970FB6F89445
:102CB000DEBF0FBECDBF8D8FA8E3B0E0E8E3F0E04C
:102CC00080818F7D8C93A8E3B0E0E8E3F0E0808121
:102CD0008F7B8C93A8E3B0E0E8E3F0E0808180682C
:102CE0008C93EBE3F0E08D8D808380E090E0A0E0BA
:102CF000B0E4898F9A8FAB8FBC8F698D7A8D8B8D65
:102D00009C8D20E030E04AEF54E40E941F02DC0179
:102D1000CB018D8B9E8BAF8BB88F6D897E898F8910
:102D2000988D20E030E040E85FE30E94250488238E
:102D30002CF481E090E09C8B8B8B3FC06D897E8969
:102D40008F89988D20E03FEF4FE757E40E94C5033D
:102D500018164CF5698D7A8D8B8D9C8D20E030E0B6
:102D600040E251E40E941F02DC01CB01BC01CD0115
:102D70000E944900DC01CB019C8B8B8B0FC088EC3F
:102D800090E09A8B898B89899A890197F1F79A8BC0
:102D9000898B8B899C8901979C8B8B8B8B899C89D8
:102DA000009769F714C06D897E898F89988D0E947C
:102DB0004900DC01CB019C8B8B8B8B899C89988B88
:102DC0008F878F8598890197F1F7988B8F87A8E374
:102DD000B0E0E8E3F0E080818F778C9380E090E0D2
:102DE000A0E2B1E48B879C87AD87BE876B857C852D
:102DF0008D859E8520E030E04AEF54E40E941F025A
:102E0000DC01CB018F839887A987BA876F8178858A
:102E100089859A8520E030E040E85FE30E94250440
:102E200088232CF481E090E09E838D833FC06F81E6
:102E3000788589859A8520E03FEF4FE757E40E9427
:102E4000C50318164CF56B857C858D859E8520E025
:102E500030E040E251E40E941F02DC01CB01BC01E2
:102E6000CD010E944900DC01CB019E838D830FC000
:102E700088EC90E09C838B838B819C810197F1F798
:102E80009C838B838D819E8101979E838D838D8111
:102E90009E81009769F714C06F81788589859A852E
:102EA0000E944900DC01CB019E838D838D819E8130
:102EB0009A83898389819A810197F1F79A8389831B
:102EC0006D960FB6F894DEBF0FBECDBFCF91DF91E8
:102ED00008950F931F93DF93CF93CDB7DEB7C654FA
:102EE000D0400FB6F894DEBF0FBECDBFEAE3F0E0EE
:102EF0008FEF8083A7E3B0E0E7E3F0E080818062BA
:102F00008C93A7E3B0E0E7E3F0E0808180648C93EA
:102F1000A7E3B0E0E7E3F0E0808180688C93FE01F6
:102F2000ED5BFF4F80E090E0A0EFB1E48083918300
:102F3000A283B3838E01015C1F4FFE01ED5BFF4F47
:102F4000608171818281938120E030E04AEF54E416
:102F50000E941F02DC01CB01F80180839183A283D0
:102F6000B383FE01FF96608171818281938120E0AD
:102F700030E040E85FE30E94250488232CF481E0E0
:102F800090E09EAF8DAF46C0FE01FF9660817181DB
:102F90008281938120E03FEF4FE757E40E94C50311
:102FA000181664F5FE01ED5BFF4F6081718182812F
:102FB000938120E030E040E251E40E941F02DC01F6
:102FC000CB01BC01CD010E944900DC01CB019EAFC9
:102FD0008DAF0FC088EC90E09CAF8BAF8BAD9CADFC
:102FE0000197F1F79CAF8BAF8DAD9EAD01979EAF72
:102FF0008DAF8DAD9EAD009769F716C0FE01FF96AF
:1030000060817181828193810E944900DC01CB0142
:103010009EAF8DAF8DAD9EAD9AAF89AF89AD9AADA4
:103020000197F1F79AAF89AF88E30E94511680E0CB
:1030300090E0A0E0B0E48DAB9EABAFABB8AF6DA9B4
:103040007EA98FA998AD20E030E04AEF54E40E94B9
:103050001F02DC01CB0189AB9AABABABBCAB69A95E
:103060007AA98BA99CA920E030E040E85FE30E94A8
:10307000250488232CF481E090E098AB8FA73FC013
:1030800069A97AA98BA99CA920E03FEF4FE757E4F3
:103090000E94C50318164CF56DA97EA98FA998AD9D
:1030A00020E030E040E251E40E941F02DC01CB014D
:1030B000BC01CD010E944900DC01CB0198AB8FA778
:1030C0000FC088EC90E09EA78DA78DA59EA50197C7
:1030D000F1F79EA78DA78FA598A9019798AB8FA709
:1030E0008FA598A9009769F714C069A97AA98BA937
:1030F0009CA90E944900DC01CB0198AB8FA78FA54A
:1031000098A99CA78BA78BA59CA50197F1F79CA7D5
:103110008BA78CE00E94511680E090E0A0E0B0E424
:103120008FA398A7A9A7BAA76FA178A589A59AA5E3
:1031300020E030E04AEF54E40E941F02DC01CB01A2
:103140008BA39CA3ADA3BEA36BA17CA18DA19EA1CB
:1031500020E030E040E85FE30E94250488232CF45F
:1031600081E090E09AA389A33FC06BA17CA18DA1CF
:103170009EA120E03FEF4FE757E40E94C5031816D9
:103180004CF56FA178A589A59AA520E030E040E232
:1031900051E40E941F02DC01CB01BC01CD010E9461
:1031A0004900DC01CB019AA389A30FC088EC90E011
:1031B00098A38F8F8F8D98A10197F1F798A38F8F88
:1031C00089A19AA101979AA389A389A19AA100979D
:1031D00069F714C06BA17CA18DA19EA10E9449003A
:1031E000DC01CB019AA389A389A19AA19E8F8D8F1F
:1031F0008D8D9E8D0197F1F79E8F8D8F81E00E94BE
:10320000511680E090E0A0E0B0E4898F9A8FAB8FF8
:10321000BC8F698D7A8D8B8D9C8D20E030E04AEFDC
:1032200054E40E941F02DC01CB018D8B9E8BAF8B7F
:10323000B88F6D897E898F89988D20E030E040E8D5
:103240005FE30E94250488232CF481E090E09C8BAE
:103250008B8B3FC06D897E898F89988D20E03FEFF1
:103260004FE757E40E94C50318164CF5698D7A8D17
:103270008B8D9C8D20E030E040E251E40E941F02E3
:10328000DC01CB01BC01CD010E944900DC01CB0176
:103290009C8B8B8B0FC088EC90E09A8B898B8989F3
:1032A0009A890197F1F79A8B898B8B899C89019771
:1032B0009C8B8B8B8B899C89009769F714C06D89D7
:1032C0007E898F89988D0E944900DC01CB019C8BFF
:1032D0008B8B8B899C89988B8F878F859889019799
:1032E000F1F7988B8F8786E00E94511680E090E07E
:1032F000A0E0B0E48B879C87AD87BE876B857C851B
:103300008D859E8520E030E04AEF54E40E941F0244
:10331000DC01CB018F839887A987BA876F81788575
:1033200089859A8520E030E040E85FE30E9425042B
:1033300088232CF481E090E09E838D833FC06F81D1
:10334000788589859A8520E03FEF4FE757E40E9412
:10335000C50318164CF56B857C858D859E8520E010
:1033600030E040E251E40E941F02DC01CB01BC01CD
:10337000CD010E944900DC01CB019E838D830FC0EB
:1033800088EC90E09C838B838B819C810197F1F783
:103390009C838B838D819E8101979E838D838D81FC
:1033A0009E81009769F714C06F81788589859A8519
:1033B0000E944900DC01CB019E838D838D819E811B
:1033C0009A83898389819A810197F1F79A83898306
:1033D000CA5BDF4F0FB6F894DEBF0FBECDBFCF91F3
:1033E000DF911F910F910895DF93CF9300D000D00C
:1033F000CDB7DEB789836A838A818031C0F4898141
:10340000282F30E03C832B838B819C81009731F007
:103410002B813C812130310531F009C08A818058EF
:103420000E94511604C08A8180540E9451160F9048
:103430000F900F900F90CF91DF910895DF93CF936E
:10344000CDB7DEB781E00E945116CF91DF9108958C
:10345000DF93CF9300D00F92CDB7DEB79B838A83E3
:10346000198219820EC08981282F30E08A819B81C0
:10347000FC01E20FF31F80810E94391589818F5F63
:1034800089838981282F30E08A819B81FC01E20FAA
:10349000F31F8081882339F70F900F900F90CF9101
:1034A000DF9108950F931F93DF93CF93CDB7DEB7CE
:1034B00060970FB6F894DEBF0FBECDBF6D877E87D5
:1034C0008F87988B8D859E85AF85B8890097A105DC
:1034D000B10521F480E30E94391556C08BE0FE014E
:1034E0003296DF01982F1D929A95E9F7198230C024
:1034F0008981082F112707FD10958D859E85AF8541
:10350000B8892AE030E040E050E0BC01CD010E94E3
:103510007125DC01CB01282F205DCE010296FC0134
:10352000E00FF11F208389818F5F89838D859E85C0
:10353000AF85B8892AE030E040E050E0BC01CD0121
:103540000E947125DA01C9018D879E87AF87B88BEC
:103550008D859E85AF85B8890097A105B10541F697
:1035600010C08981815089838981282F332727FDC5
:103570003095CE010296FC01E20FF31F80810E947C
:103580003915898118166CF360960FB6F894DEBF72
:103590000FBECDBFCF91DF911F910F9108950F9373
:1035A0001F93DF93CF93CDB7DEB7ED970FB6F894A7
:1035B000DEBF0FBECDBF69AF7AAF8BAF9CAF4DAF53
:1035C00069AD7AAD8BAD9CAD0E944900DC01CB01A9
:1035D0008A879B87AC87BD876A857B858C859D851F
:1035E0000E9407059B01AC0169AD7AAD8BAD9CAD26
:1035F0000E94C101DC01CB018E839F83A887B9871C
:103600001D828A859B85AC85BD850097A105B10586
:1036100071F48D81282F30E0CE010E96FC01E20F6F
:10362000F31F80E380838D818F5F8D8354C01C8264
:103630002EC08C81082F10E08A859B85AC85BD85C6
:103640002AE030E040E050E0BC01CD010E9471254D
:10365000DC01CB01282F205DCE018E96FC01E00F0E
:10366000F11F20838C818F5F8C838A859B85AC853D
:10367000BD852AE030E040E050E0BC01CD010E9471
:103680007125DA01C9018A879B87AC87BD878A8546
:103690009B85AC85BD850097A105B10551F618C085
:1036A0008D81482F50E08C8181508C838C81282F14
:1036B00030E0CE018E96FC01E20FF31F2081CE0197
:1036C0000E96FC01E40FF51F20838D818F5F8D83A3
:1036D0008C81882329F78D81282F30E0CE010E962A
:1036E000FC01E20FF31F8EE280838D818F5F8D835B
:1036F0001B8244C06E817F818885998520E030E0FF
:1037000040E251E40E941F02DC01CB018E839F83C3
:10371000A887B9876E817F81888599850E94490035
:10372000DC01CB018A838D81282F30E08A81482FEC
:10373000405DCE010E96FC01E20FF31F40838D81A8
:103740008F5F8D838A81882F90E0AA2797FDA095AF
:10375000BA2FBC01CD010E9455049B01AC016E81C2
:103760007F81888599850E94C101DC01CB018E8310
:103770009F83A887B9878B818F5F8B839B818DAD5A
:10378000981708F4B7CF8D81282F30E0CE010E9620
:10379000FC01E20FF31F108219820EC08981282FCD
:1037A00030E0CE010E96FC01E20FF31F80810E94F3
:1037B000391589818F5F89838981282F30E0CE0177
:1037C0000E96FC01E20FF31F8081882339F7ED96F6
:1037D0000FB6F894DEBF0FBECDBFCF91DF911F9122
:1037E0000F910895DF93CF93CDB7DEB7A4E3B0E098
:1037F000E4E3F0E0808181608C93A4E3B0E0E4E353
:10380000F0E0808182608C93A4E3B0E0E4E3F0E038
:10381000808184608C93A4E3B0E0E4E3F0E08081F5
:1038200088608C93A4E3B0E0E4E3F0E080818F7ED5
:103830008C93A4E3B0E0E4E3F0E080818F7D8C938F
:10384000A4E3B0E0E4E3F0E080818F7B8C93A4E319
:10385000B0E0E4E3F0E080818F778C93E5E3F0E083
:103860008FEF8083CF91DF910895DF93CF93CDB712
:10387000DEB761970FB6F894DEBF0FBECDBF198AD1
:10388000188A1F86198ADDC0A5E3B0E0E5E3F0E001
:103890008081482F8989882F90E0FC01ED50FE4FF0
:1038A0008081282F30E081E090E0022E02C0880F56
:1038B000991F0A94E2F7809584238C93188AA1C0FB
:1038C000E3E3F0E08081282F30E08889882F90E0C2
:1038D000FC01E950FE4F8081882F90E0A90102C0D1
:1038E000559547958A95E2F7CA01817090700097C7
:1038F00009F084C08989482F50E08889282F30E05A
:10390000CA01880F991F880F991F820F931FFC010E
:10391000E550FE4F80818F8780E090E0A0E2B1E427
:103920008B879C87AD87BE876B857C858D859E85C3
:1039300020E030E04AEF54E40E941F02DC01CB019A
:103940008F839887A987BA876F81788589859A85BB
:1039500020E030E040E85FE30E94250488232CF457
:1039600081E090E09E838D833FC06F81788589855B
:103970009A8520E03FEF4FE757E40E94C5031816F1
:103980004CF56B857C858D859E8520E030E040E29E
:1039900051E40E941F02DC01CB01BC01CD010E9459
:1039A0004900DC01CB019E838D830FC088EC90E041
:1039B0009C838B838B819C810197F1F79C838B8304
:1039C0008D819E8101979E838D838D819E8100973D
:1039D00069F714C06F81788589859A850E944900AE
:1039E000DC01CB019E838D838D819E819A838983A7
:1039F00089819A810197F1F79A83898388898F5FFA
:103A0000888B8889843008F45BCFA5E3B0E0E5E3D8
:103A1000F0E08081482F8989882F90E0FC01ED50EB
:103A2000FE4F8081282F30E081E090E0022E02C01E
:103A3000880F991F0A94E2F7842B8C9389898F5FF2
:103A4000898B8989843008F41FCF8F8561960FB6E2
:103A5000F894DEBF0FBECDBFCF91DF910895DF9305
:103A6000CF93CDB7DEB761970FB6F894DEBF0FBE28
:103A7000CDBF198A188A1F86198AF6C0A5E3B0E05F
:103A8000E5E3F0E08081482F8989882F90E0FC01F0
:103A9000ED50FE4F8081282F30E081E090E0022E33
:103AA00002C0880F991F0A94E2F7809584238C93B3
:103AB000188ABAC0E3E3F0E08081282F30E08889DB
:103AC000882F90E0FC01E950FE4F8081882F90E024
:103AD000A90102C0559547958A95E2F7CA01817000
:103AE0009070009709F09DC08989482F50E088891F
:103AF000282F30E0CA01880F991F880F991F820F65
:103B0000931FFC01E550FE4F80818F8780E090E09D
:103B1000A0E2B1E48B879C87AD87BE876B857C85EF
:103B20008D859E8520E030E04AEF54E40E941F021C
:103B3000DC01CB018F839887A987BA876F8178854D
:103B400089859A8520E030E040E85FE30E94250403
:103B500088232CF481E090E09E838D833FC06F81A9
:103B6000788589859A8520E03FEF4FE757E40E94EA
:103B7000C50318164CF56B857C858D859E8520E0E8
:103B800030E040E251E40E941F02DC01CB01BC01A5
:103B9000CD010E944900DC01CB019E838D830FC0C3
:103BA00088EC90E09C838B838B819C810197F1F75B
:103BB0009C838B838D819E8101979E838D838D81D4
:103BC0009E81009769F714C06F81788589859A85F1
:103BD0000E944900DC01CB019E838D838D819E81F3
:103BE0009A83898389819A810197F1F79A838983DE
:103BF000E3E3F0E08081282F30E08889882F90E08F
:103C0000FC01E950FE4F8081882F90E0A90102C09D
:103C1000559547958A95E2F7CA0181709070009793
:103C200039F388898F5F888B8889843008F442CF84
:103C3000A5E3B0E0E5E3F0E08081482F8989882F93
:103C400090E0FC01ED50FE4F8081282F30E081E0B4
:103C500090E0022E02C0880F991F0A94E2F7842B8D
:103C60008C9389898F5F898B8989843008F406CF8A
:103C70008F8561960FB6F894DEBF0FBECDBFCF9192
:103C8000DF910895DF93CF930F92CDB7DEB789838D
:103C900089810E94DB070E9481080F90CF91DF91FC
:103CA00008950F931F93DF93CF93CDB7DEB7CD5415
:103CB000D0400FB6F894DEBF0FBECDBF0E94D61421
:103CC0000E94910782E49EE10E945D080E947507B0
:103CD0000E94F21B0E94691786E390E064E04FEFB8
:103CE0000E944E14FE01E35BFF4F1082FE01E75B72
:103CF000FF4F1082118212821382FE01E85BFF4F98
:103D00001082FE01E95BFF4F108280E690E00E9486
:103D1000281A81E060E00E94F41961C20E94351CFB
:103D2000FE01E35BFF4F8083FE01ED5BFF4F80E010
:103D300090E0A0EAB1E480839183A283B3838E01F3
:103D4000015C1F4FFE01ED5BFF4F6081718182813D
:103D5000938120E030E04AEF54E40E941F02DC012E
:103D6000CB01F80180839183A283B383FE01FF9688
:103D7000608171818281938120E030E040E85FE3DF
:103D80000E94250488232CF481E090E09EAF8DAF43
:103D900046C0FE01FF96608171818281938120E09F
:103DA0003FEF4FE757E40E94C503181664F5FE0184
:103DB000ED5BFF4F608171818281938120E030E073
:103DC00040E251E40E941F02DC01CB01BC01CD01A5
:103DD0000E944900DC01CB019EAF8DAF0FC088EC83
:103DE00090E09CAF8BAF8BAD9CAD0197F1F79CAF92
:103DF0008BAF8DAD9EAD01979EAF8DAF8DAD9EAD5E
:103E0000009769F716C0FE01FF966081718182817B
:103E100093810E944900DC01CB019EAF8DAF8DAD37
:103E20009EAD9AAF89AF89AD9AAD0197F1F79AAF80
:103E300089AFFE01E35BFF4F8081882309F4A8C0AE
:103E4000FE01E35BFF4F80810E943915FE01E75BB5
:103E5000FF4F80819181A281B3812AE030E040E070
:103E600050E0BC01CD010E9452259B01AC01FE0136
:103E7000E35BFF4F8081882F90E0C097AA2797FDD2
:103E8000A095BA2FFE01E75BFF4F820F931FA41F7F
:103E9000B51F80839183A283B383DE01A85BBF4FEC
:103EA000FE01E85BFF4F80818F5F8C9380E090E0A4
:103EB000AAE7B4E48DAB9EABAFABB8AF6DA97EA95A
:103EC0008FA998AD20E030E04AEF54E40E941F0231
:103ED000DC01CB0189AB9AABABABBCAB69A97AA9CE
:103EE0008BA99CA920E030E040E85FE30E94250414
:103EF00088232CF481E090E098AB8FA73FC069A99C
:103F00007AA98BA99CA920E03FEF4FE757E40E94D4
:103F1000C50318164CF56DA97EA98FA998AD20E0B0
:103F200030E040E251E40E941F02DC01CB01BC0101
:103F3000CD010E944900DC01CB0198AB8FA70FC0D7
:103F400088EC90E09EA78DA78DA59EA50197F1F71F
:103F50009EA78DA78FA598A9019798AB8FA78FA52E
:103F600098A9009769F714C069A97AA98BA99CA997
:103F70000E944900DC01CB0198AB8FA78FA598A9BF
:103F80009CA78BA78BA59CA50197F1F79CA78BA756
:103F9000FE01E85BFF4F8081843009F020C10E9460
:103FA0001E1AFE01E75BFF4F80819181A281B381E0
:103FB000863FF6E09F07F0E0AF07F0E0BF0709F0AB
:103FC0007FC082E790E00E94281A8AE50E94F014E0
:103FD00080E090E8ABE3B5E48FA398A7A9A7BAA7C0
:103FE0006FA178A589A59AA520E030E04AEF54E4B6
:103FF0000E941F02DC01CB018BA39CA3ADA3BEA337
:104000006BA17CA18DA19EA120E030E040E85FE3A0
:104010000E94250488232CF481E090E09AA389A3D0
:104020003FC06BA17CA18DA19EA120E03FEF4FE797
:1040300057E40E94C50318164CF56FA178A589A511
:104040009AA520E030E040E251E40E941F02DC012A
:10405000CB01BC01CD010E944900DC01CB019AA338
:1040600089A30FC088EC90E098A38F8F8F8D98A1C3
:104070000197F1F798A38F8F89A19AA101979AA32D
:1040800089A389A19AA1009769F714C06BA17CA1AB
:104090008DA19EA10E944900DC01CB019AA389A3B6
:1040A00089A19AA19E8F8D8F8D8D9E8D0197F1F79D
:1040B0009E8F8D8F80E00E94F0141092F2018FC0CD
:1040C00083E890E00E94281A80E090E0AAE7B4E438
:1040D000898F9A8FAB8FBC8F698D7A8D8B8D9C8DDC
:1040E00020E030E04AEF54E40E941F02DC01CB01E3
:1040F0008D8B9E8BAF8BB88F6D897E898F89988DC4
:1041000020E030E040E85FE30E94250488232CF49F
:1041100081E090E09C8B8B8B3FC06D897E898F897D
:10412000988D20E03FEF4FE757E40E94C503181633
:104130004CF5698D7A8D8B8D9C8D20E030E040E2CE
:1041400051E40E941F02DC01CB01BC01CD010E94A1
:104150004900DC01CB019C8B8B8B0FC088EC90E07D
:104160009A8B898B89899A890197F1F79A8B898B28
:104170008B899C8901979C8B8B8B8B899C89009761
:1041800069F714C06D897E898F89988D0E944900D6
:10419000DC01CB019C8B8B8B8B899C89988B8F87C7
:1041A0008F8598890197F1F7988B8F87FE01E35BE4
:1041B000FF4F1082FE01E75BFF4F108211821282D7
:1041C0001382FE01E85BFF4F10820E941E1A80E6F8
:1041D00090E00E94281A81E060E00E94F41980912A
:1041E000F201813009F49ACD0E941E1A9AC080E033
:1041F00060E00E94F41982E990E00E94281A81E0B0
:1042000060E00E94F41982EA90E00E94281A0E945D
:10421000351CFE01E95BFF4F8083FE01E95BFF4F28
:1042200080818823A1F3FE01E95BFF4F80810E941A
:10423000391580E090E0AAE7B4E48B879C87AD87CE
:10424000BE876B857C858D859E8520E030E04AEFBA
:1042500054E40E941F02DC01CB018F839887A98759
:10426000BA876F81788589859A8520E030E040E8BB
:104270005FE30E94250488232CF481E090E09E8374
:104280008D833FC06F81788589859A8520E03FEFD7
:104290004FE757E40E94C50318164CF56B857C85E3
:1042A0008D859E8520E030E040E251E40E941F02AF
:1042B000DC01CB01BC01CD010E944900DC01CB0136
:1042C0009E838D830FC088EC90E09C838B838B81D1
:1042D0009C810197F1F79C838B838D819E8101974F
:1042E0009E838D838D819E81009769F714C06F81B5
:1042F000788589859A850E944900DC01CB019E83DF
:104300008D838D819E819A83898389819A8101978A
:10431000F1F79A838983FE01E95BFF4F80810E9458
:10432000A4218091F201882309F461CF80E090E01C
:10433000C35BDF4F0FB6F894DEBF0FBECDBFCF918A
:10434000DF911F910F9108950F931F93DF93CF93E8
:10435000CDB7DEB7C755D0400FB6F894DEBF0FBE5D
:10436000CDBFFE01E95AFF4F8083FE01EA5AFF4F9D
:104370001082DE01AB5ABF4FFE01E95AFF4F808128
:104380008C930E941E1AFE01EB5AFF4F80818133ED
:1043900029F48AEA90E00E94281A0AC0FE01EB5A2A
:1043A000FF4F8081823321F48CEB90E00E94281A29
:1043B00081E060E00E94F41982EA90E00E94281AED
:1043C000FE01EF5AFF4F80E090E0AAE7B4E480835B
:1043D0009183A283B3838E01035B1F4FFE01EF5ACB
:1043E000FF4F608171818281938120E030E04AEF4C
:1043F00054E40E941F02DC01CB01F8018083918309
:10440000A283B383FE01E35BFF4F608171818281F0
:10441000938120E030E040E85FE30E942504882398
:1044200044F4FE01E55BFF4F81E090E091838083DF
:1044300064C0FE01E35BFF4F6081718182819381E3
:1044400020E03FEF4FE757E40E94C50318160CF039
:1044500043C0FE01EF5AFF4F6081718182819381D9
:1044600020E030E040E251E40E941F02DC01CB0179
:104470008E01055B1F4FBC01CD010E944900DC018C
:10448000CB01F801918380831FC0FE01E75BFF4FE2
:1044900088EC90E091838083FE01E75BFF4F808191
:1044A00091810197F1F7FE01E75BFF4F91838083D4
:1044B000DE01A55BBF4FFE01E55BFF4F808191816F
:1044C000019711969C938E93FE01E55BFF4F8081CF
:1044D00091810097D1F6DDC08E01055B1F4FFE0173
:1044E000E35BFF4F60817181828193810E9449006B
:1044F000DC01CB01F80191838083DE01A95BBF4F12
:10450000FE01E55BFF4F8081918111969C938E9314
:10451000FE01E95BFF4F808191810197F1F7FE0178
:10452000E95BFF4F91838083B4C00E94351CFE017C
:10453000EA5AFF4F8083FE01EA5AFF4F80818823A9
:1045400009F4A7C0FE01EA5AFF4F80810E94391585
:10455000DE01AA5ABF4FFE01EA5AFF4F8081805305
:104560008C93FE01EA5AFF4F8081813031F0FE01C9
:10457000EA5AFF4F8081823039F4FE01EA5AFF4F38
:104580008081809344028AC0FE01ED5BFF4F80E092
:1045900090E0AAE7B4E480839183A283B3838E0181
:1045A000015C1F4FFE01ED5BFF4F608171818281D5
:1045B000938120E030E04AEF54E40E941F02DC01C6
:1045C000CB01F80180839183A283B383FE01FF9620
:1045D000608171818281938120E030E040E85FE377
:1045E0000E94250488232CF481E090E09EAF8DAFDB
:1045F00046C0FE01FF96608171818281938120E037
:104600003FEF4FE757E40E94C503181664F5FE011B
:10461000ED5BFF4F608171818281938120E030E00A
:1046200040E251E40E941F02DC01CB01BC01CD013C
:104630000E944900DC01CB019EAF8DAF0FC088EC1A
:1046400090E09CAF8BAF8BAD9CAD0197F1F79CAF29
:104650008BAF8DAD9EAD01979EAF8DAF8DAD9EADF5
:10466000009769F716C0FE01FF9660817181828113
:1046700093810E944900DC01CB019EAF8DAF8DADCF
:104680009EAD9AAF89AF89AD9AAD0197F1F79AAF18
:1046900089AF80914402882309F447CF0E941E1AF3
:1046A0008FEC90E00E94281A80E090E0AAEFB3E43B
:1046B0008DAB9EABAFABB8AF6DA97EA98FA998ADFE
:1046C00020E030E04AEF54E40E941F02DC01CB01FD
:1046D00089AB9AABABABBCAB69A97AA98BA99CA9F6
:1046E00020E030E040E85FE30E94250488232CF4BA
:1046F00081E090E098AB8FA73FC069A97AA98BA908
:104700009CA920E03FEF4FE757E40E94C50318162D
:104710004CF56DA97EA98FA998AD20E030E040E26C
:1047200051E40E941F02DC01CB01BC01CD010E94BB
:104730004900DC01CB0198AB8FA70FC088EC90E05B
:104740009EA78DA78DA59EA50197F1F79EA78DA782
:104750008FA598A9019798AB8FA78FA598A90097C7
:1047600069F714C069A97AA98BA99CA90E9449007C
:10477000DC01CB0198AB8FA78FA598A99CA78BA72D
:104780008BA59CA50197F1F79CA78BA7FE01EB5A7F
:10479000FF4F8081813321F484E50E94421E09C0CD
:1047A000FE01EB5AFF4F8081823319F48CE40E94A2
:1047B000421E80E090E0AAE7B4E48FA398A7A9A7DF
:1047C000BAA76FA178A589A59AA520E030E04AEFA5
:1047D00054E40E941F02DC01CB018BA39CA3ADA378
:1047E000BEA36BA17CA18DA19EA120E030E040E89A
:1047F0005FE30E94250488232CF481E090E09AA3D3
:1048000089A33FC06BA17CA18DA19EA120E03FEFB9
:104810004FE757E40E94C50318164CF56FA178A521
:1048200089A59AA520E030E040E251E40E941F02F1
:10483000DC01CB01BC01CD010E944900DC01CB01B0
:104840009AA389A30FC088EC90E098A38F8F8F8DD7
:1048500098A10197F1F798A38F8F89A19AA1019749
:104860009AA389A389A19AA1009769F714C06BA1A3
:104870007CA18DA19EA10E944900DC01CB019AA3DD
:1048800089A389A19AA19E8F8D8F8D8D9E8D019771
:10489000F1F79E8F8D8F80914402813021F481E465
:1048A0000E94421E07C080914402823019F48DE4B8
:1048B0000E94421E80E090E0AAE7B4E4898F9A8FBC
:1048C000AB8FBC8F698D7A8D8B8D9C8D20E030E015
:1048D0004AEF54E40E941F02DC01CB018D8B9E8BBA
:1048E000AF8BB88F6D897E898F89988D20E030E0FD
:1048F00040E85FE30E94250488232CF481E090E0E7
:104900009C8B8B8B3FC06D897E898F89988D20E031
:104910003FEF4FE757E40E94C50318164CF5698D29
:104920007A8D8B8D9C8D20E030E040E251E40E9436
:104930001F02DC01CB01BC01CD010E944900DC015A
:10494000CB019C8B8B8B0FC088EC90E09A8B898B72
:1049500089899A890197F1F79A8B898B8B899C8930
:1049600001979C8B8B8B8B899C89009769F714C06E
:104970006D897E898F89988D0E944900DC01CB0169
:104980009C8B8B8B8B899C89988B8F878F85988943
:104990000197F1F7988B8F870E941E1A8FED90E098
:1049A0000E94281A80E090E0AAE7B4E48B879C87F5
:1049B000AD87BE876B857C858D859E8520E030E048
:1049C0004AEF54E40E941F02DC01CB018F839887D9
:1049D000A987BA876F81788589859A8520E030E03C
:1049E00040E85FE30E94250488232CF481E090E0F6
:1049F0009E838D833FC06F81788589859A8520E06D
:104A00003FEF4FE757E40E94C50318164CF56B853E
:104A10007C858D859E8520E030E040E251E40E9457
:104A20001F02DC01CB01BC01CD010E944900DC0169
:104A3000CB019E838D830FC088EC90E09C838B8399
:104A40008B819C810197F1F79C838B838D819E8163
:104A500001979E838D838D819E81009769F714C095
:104A60006F81788589859A850E944900DC01CB0198
:104A70009E838D838D819E819A83898389819A818A
:104A80000197F1F79A83898310924402C95ADF4F44
:104A90000FB6F894DEBF0FBECDBFCF91DF911F914F
:104AA0000F910895629FD001739FF001829FE00DE6
:104AB000F11D649FE00DF11D929FF00D839FF00D9D
:104AC000749FF00D659FF00D9927729FB00DE11D49
:104AD000F91F639FB00DE11DF91FBD01CF01112426
:104AE0000895A1E21A2EAA1BBB1BFD010DC0AA1F2F
:104AF000BB1FEE1FFF1FA217B307E407F50720F047
:104B0000A21BB30BE40BF50B661F771F881F991FC1
:104B10001A9469F760957095809590959B01AC010A
:104B2000BD01CF0108952F923F924F925F926F92F5
:104B30007F928F929F92AF92BF92CF92DF92EF922D
:104B4000FF920F931F93CF93DF93CDB7DEB7CA1BAE
:104B5000DB0B0FB6F894DEBF0FBECDBF09942A88D9
:104B6000398848885F846E847D848C849B84AA8481
:104B7000B984C884DF80EE80FD800C811B81AA810E
:104B8000B981CE0FD11D0FB6F894DEBF0FBECDBFD9
:084B9000ED010895F894FFCF38
:104B9800456E746572205468652070617373203A9D
:104BA8002000436F72726563742050617373776F6E
:104BB80072640057726F6E672050617373776F72FB
:104BC800640054656D7020312C204C69676874202E
:104BD8003200456E7465723A20004175746F205436
:104BE800656D7020312C4D616E2032004175746FF7
:104BF800204C6967687420312C4D616E2032005357
:104C0800656E64696E6720446174612E2E2E0044BF
:104C18006174612053656E7421000000000000007B
:104C28000000000102020303030304040404040453
:104C3800040405050505050505050505050505051E
:104C480005050606060606060606060606060606FE
:104C580006060606060606060606060606060606EC
:104C680006060707070707070707070707070707CE
:104C780007070707070707070707070707070707BC
:104C880007070707070707070707070707070707AC
:104C9800070707070707070707070707070707079C
:104CA800070708080808080808080808080808087E
:104CB800080808080808080808080808080808086C
:104CC800080808080808080808080808080808085C
:104CD800080808080808080808080808080808084C
:104CE800080808080808080808080808080808083C
:104CF800080808080808080808080808080808082C
:104D0800080808080808080808080808080808081B
:104D1800080808080808080808080808080808080B
:104D280008080100010203040506073738392F3443
:0C4D380035362A3132332D4E303D2B0031
:00000001FF
